{
  "contractName": "SocialNetwork",
  "abi": [
    {
      "inputs": [],
      "payable": false,
      "stateMutability": "nonpayable",
      "type": "constructor"
    },
    {
      "anonymous": false,
      "inputs": [
        {
          "indexed": false,
          "internalType": "uint256",
          "name": "id",
          "type": "uint256"
        },
        {
          "indexed": false,
          "internalType": "string",
          "name": "content",
          "type": "string"
        },
        {
          "indexed": false,
          "internalType": "address payable",
          "name": "author",
          "type": "address"
        },
        {
          "indexed": false,
          "internalType": "uint256",
          "name": "tipamount",
          "type": "uint256"
        }
      ],
      "name": "PostCreated",
      "type": "event"
    },
    {
      "anonymous": false,
      "inputs": [
        {
          "indexed": false,
          "internalType": "uint256",
          "name": "id",
          "type": "uint256"
        },
        {
          "indexed": false,
          "internalType": "string",
          "name": "content",
          "type": "string"
        },
        {
          "indexed": false,
          "internalType": "address payable",
          "name": "author",
          "type": "address"
        },
        {
          "indexed": false,
          "internalType": "uint256",
          "name": "tipamount",
          "type": "uint256"
        }
      ],
      "name": "PostTipped",
      "type": "event"
    },
    {
      "constant": true,
      "inputs": [],
      "name": "postCount",
      "outputs": [
        {
          "internalType": "uint256",
          "name": "",
          "type": "uint256"
        }
      ],
      "payable": false,
      "stateMutability": "view",
      "type": "function"
    },
    {
      "constant": true,
      "inputs": [
        {
          "internalType": "uint256",
          "name": "",
          "type": "uint256"
        }
      ],
      "name": "posts",
      "outputs": [
        {
          "internalType": "uint256",
          "name": "id",
          "type": "uint256"
        },
        {
          "internalType": "string",
          "name": "content",
          "type": "string"
        },
        {
          "internalType": "address payable",
          "name": "author",
          "type": "address"
        },
        {
          "internalType": "uint256",
          "name": "tipamount",
          "type": "uint256"
        }
      ],
      "payable": false,
      "stateMutability": "view",
      "type": "function"
    },
    {
      "constant": false,
      "inputs": [
        {
          "internalType": "string",
          "name": "_content",
          "type": "string"
        }
      ],
      "name": "CreatePost",
      "outputs": [],
      "payable": false,
      "stateMutability": "nonpayable",
      "type": "function"
    },
    {
      "constant": false,
      "inputs": [
        {
          "internalType": "uint256",
          "name": "_id",
          "type": "uint256"
        }
      ],
      "name": "tipPost",
      "outputs": [],
      "payable": true,
      "stateMutability": "payable",
      "type": "function"
    }
  ],
  "bytecode": "0x608060405234801561001057600080fd5b506040805180820190915260158082527f476175726176277320536f6369616c204d65646961000000000000000000000060209092019182526100559160009161005b565b506100f6565b828054600181600116156101000203166002900490600052602060002090601f016020900481019282601f1061009c57805160ff19168380011785556100c9565b828001600101855582156100c9579182015b828111156100c95782518255916020019190600101906100ae565b506100d59291506100d9565b5090565b6100f391905b808211156100d557600081556001016100df565b90565b6107b4806101056000396000f3fe60806040526004361061003f5760003560e01c80630b1e7f831461004457806317906c2e1461010d57806359af52e41461013457806374d3c1f8146101e9575b600080fd5b34801561005057600080fd5b5061006e6004803603602081101561006757600080fd5b5035610206565b6040518085815260200180602001846001600160a01b03166001600160a01b03168152602001838152602001828103825285818151815260200191508051906020019080838360005b838110156100cf5781810151838201526020016100b7565b50505050905090810190601f1680156100fc5780820380516001836020036101000a031916815260200191505b509550505050505060405180910390f35b34801561011957600080fd5b506101226102c1565b60408051918252519081900360200190f35b34801561014057600080fd5b506101e76004803603602081101561015757600080fd5b81019060208101813564010000000081111561017257600080fd5b82018360208201111561018457600080fd5b803590602001918460018302840111640100000000831117156101a657600080fd5b91908080601f0160208091040260200160405190810160405280939291908181526020018383808284376000920191909152509295506102c7945050505050565b005b6101e7600480360360208110156101ff57600080fd5b503561042b565b60026020818152600092835260409283902080546001808301805487519281161561010002600019011695909504601f81018590048502820185019096528581529094919390929091908301828280156102a15780601f10610276576101008083540402835291602001916102a1565b820191906000526020600020905b81548152906001019060200180831161028457829003601f168201915b50505050600283015460039093015491926001600160a01b031691905084565b60015481565b60008151116102d557600080fd5b60018054810180825560408051608081018252828152602080820186815233838501526000606084018190529485526002825292909320815181559151805191949293610327938501929101906106b3565b5060408201518160020160006101000a8154816001600160a01b0302191690836001600160a01b03160217905550606082015181600301559050507fb4af4b9562ae3030a4905c2c59e4d1a62b4e502925d1c337efa53dca6127d547600154823360006040518085815260200180602001846001600160a01b03166001600160a01b03168152602001838152602001828103825285818151815260200191508051906020019080838360005b838110156103eb5781810151838201526020016103d3565b50505050905090810190601f1680156104185780820380516001836020036101000a031916815260200191505b509550505050505060405180910390a150565b60008111801561043d57506001548111155b61044657600080fd5b61044e610731565b6002600083815260200190815260200160002060405180608001604052908160008201548152602001600182018054600181600116156101000203166002900480601f01602080910402602001604051908101604052809291908181526020018280546001816001161561010002031660029004801561050f5780601f106104e45761010080835404028352916020019161050f565b820191906000526020600020905b8154815290600101906020018083116104f257829003601f168201915b505050918352505060028201546001600160a01b03908116602083015260039092015460409182015282810151905192935091908216903480156108fc02916000818181858888f1935050505015801561056d573d6000803e3d6000fd5b506060820180513401905260008381526002602090815260409091208351815581840151805185936105a69260018501929101906106b3565b5060408201518160020160006101000a8154816001600160a01b0302191690836001600160a01b03160217905550606082015181600301559050507fbf6e2a412fde4e30e87aa53a5cc59ec3d26b328762e116f325a94a7ee29ec4c160015483602001518385606001516040518085815260200180602001846001600160a01b03166001600160a01b03168152602001838152602001828103825285818151815260200191508051906020019080838360005b83811015610671578181015183820152602001610659565b50505050905090810190601f16801561069e5780820380516001836020036101000a031916815260200191505b509550505050505060405180910390a1505050565b828054600181600116156101000203166002900490600052602060002090601f016020900481019282601f106106f457805160ff1916838001178555610721565b82800160010185558215610721579182015b82811115610721578251825591602001919060010190610706565b5061072d929150610762565b5090565b6040518060800160405280600081526020016060815260200160006001600160a01b03168152602001600081525090565b61077c91905b8082111561072d5760008155600101610768565b9056fea265627a7a7231582056b3eff9e313e8e2393bef5ad04c528aff232193d18e003750798790ca57355d64736f6c63430005100032",
  "source": "pragma solidity ^0.5.0;\r\n\r\ncontract SocialNetwork {\r\n    \r\n    string name;\r\n    uint public postCount ;\r\n    \r\n    struct Post {\r\n        uint id;\r\n        string content;\r\n        address payable author;\r\n        uint tipamount;\r\n    }\r\n    \r\n    mapping(uint => Post) public posts;\r\n    \r\n    event PostCreated(\r\n        uint id,\r\n        string content,\r\n        address payable author,\r\n        uint tipamount\r\n        );\r\n        \r\n    event PostTipped(\r\n        uint id,\r\n        string content,\r\n        address payable author,\r\n        uint tipamount        \r\n        );\r\n    \r\n    constructor () public {\r\n        name  = \"Gaurav's Social Media\";\r\n    }\r\n    \r\n    function CreatePost(string memory _content) public {\r\n        require(bytes(_content).length > 0);\r\n        postCount ++;\r\n        posts[postCount] = Post(postCount, _content, msg.sender, 0);\r\n        emit PostCreated(postCount, _content, msg.sender, 0);\r\n    }\r\n    \r\n    function tipPost(uint _id) public payable {\r\n        require(_id > 0 && _id <= postCount);\r\n        Post memory _post = posts[_id];\r\n        address payable _author = _post.author;\r\n        address(_author).transfer(msg.value);\r\n        _post.tipamount = _post.tipamount + msg.value;\r\n        posts[_id] = _post; \r\n        emit PostTipped(postCount, _post.content, _author, _post.tipamount);        \r\n    }\r\n}",
  "sourcePath": "C:/Gaurav/blockchain/social_network/contracts/SocialNetwork.sol",
  "compiler": {
    "name": "solc",
    "version": "0.5.16+commit.9c3226ce.Emscripten.clang"
  },
  "schemaVersion": "3.3.3",
  "updatedAt": "2021-01-19T20:21:55.708Z",
  "networkType": "ethereum",
  "devdoc": {
    "methods": {}
  },
  "userdoc": {
    "methods": {}
  }
}